:03000000020124D6
:0C012400787FE4F6D8FD75812202016BA3
:1001B00002080000010A00010B00010C05010D05F9
:1001C000010E09010F0501100301110210123F0673
:0E01D0005B4F666D7D077F6F777C395E7971BE
:10000E00120205C3E509940AE50894004064E4F57C
:10001E0008F509050AE50A940A4005E4F50A050BF8
:10002E00E50BC3940A4005E4F50B050CE50CC394EF
:10003E000A4005E4F50C050DE50DC394064005E4F4
:10004E00F50D050EE50EC3940A4005E4F50E050FF9
:10005E00E50FC394064005E4F50F0510E510C394B3
:10006E00044005E4F5100511E511C394034003E4C3
:10007E00F511E4F522E522C394085087E522B40871
:10008E0000400302011F90009BF82828730200B362
:10009E000200BF0200CB0200D70200E30200EF0213
:1000AE0000FB020107C2A2C2A3C2A47412250A80D9
:1000BE0052D2A2C2A3C2A47412250B8046C2A2D2EF
:1000CE00A3C2A47412250C803AD2A2D2A3C2A474E5
:1000DE0012250D802EC2A2C2A3D2A47412250E80A8
:1000EE0022D2A2C2A3D2A47412250F8016C2A2D20B
:1000FE00A3D2A474122510800AD2A2D2A3D2A474C1
:10010E00122511F8E6F5807F017E001201DFE4F57D
:06011E00800522020083AF
:1001DF00E4FDE4FCECC39FE49E50030C80F60DBDE0
:0201EF0001F01D
:0101F10022EB
:10020500758901758CFC758A18D2AFD2A9D28C225A
:03000B000201F2FD
:1001F200C0E0758CFC758A200509E50970020508C6
:03020200D0E03217
:1001300002000EE493A3F8E493A34003F68001F2D7
:1001400008DFF48029E493A3F85407240CC8C333D0
:10015000C4540F4420C8834004F456800146F6DF9F
:10016000E4800B01020408102040809001B0E47E7E
:10017000019360BCA3FF543F30E509541FFEE49394
:10018000A360010ECF54C025E060A840B8E493A35B
:10019000FAE493A3F8E493A3C8C582C8CAC583CA86
:1001A000F0A3C8C582C8CAC583CADFE9DEE780BE3E
:0101DE000020
:00000001FF
