:0300000002000EED
:0C000E00787FE4F6D8FD75811D020055D6
:1000FA00020B0000010800100D3F065B4F666D7D84
:09010A00077F6F777C395E797183
:10009A0012013AE50C6464450B700EF50BF50C057C
:1000AA0008E508B43C03E4F508E50875F00A84F5A8
:1000BA0009E50875F00A8485F00AE4F51DE51DC313
:1000CA00940250CFE51D14600D047020D2A5C2A67B
:1000DA00740D25098008C2A5D2A6740D250AF8E672
:1000EA00F5807F017E00120114E4F580051D80CDA4
:10011400E4FDE4FCECC39FE49E50030C80F60DBDAB
:0201240001F0E8
:0101260022B6
:10013A00758901758CDC758A08D2AFD2A9D28C2256
:03000B00020127C8
:10012700C0E0758CDC758A08050CE50C7002050BC0
:03013700D0E032E3
:10001A0002009AE493A3F8E493A34003F68001F262
:10002A0008DFF48029E493A3F85407240CC8C333E7
:10003A00C4540F4420C8834004F456800146F6DFB6
:10004A00E4800B01020408102040809000FAE47E4C
:10005A00019360BCA3FF543F30E509541FFEE493AB
:10006A00A360010ECF54C025E060A840B8E493A372
:10007A00FAE493A3F8E493A3C8C582C8CAC583CA9D
:10008A00F0A3C8C582C8CAC583CADFE9DEE780BE55
:0101130000EB
:00000001FF
